{
  "contractName": "Crowdfunding",
  "abi": [
    {
      "constant": true,
      "inputs": [],
      "name": "endTime",
      "outputs": [
        {
          "name": "",
          "type": "uint256"
        }
      ],
      "payable": false,
      "stateMutability": "view",
      "type": "function"
    },
    {
      "constant": true,
      "inputs": [],
      "name": "closed",
      "outputs": [
        {
          "name": "",
          "type": "bool"
        }
      ],
      "payable": false,
      "stateMutability": "view",
      "type": "function"
    },
    {
      "constant": true,
      "inputs": [],
      "name": "price",
      "outputs": [
        {
          "name": "",
          "type": "uint256"
        }
      ],
      "payable": false,
      "stateMutability": "view",
      "type": "function"
    },
    {
      "constant": true,
      "inputs": [],
      "name": "author",
      "outputs": [
        {
          "name": "",
          "type": "address"
        }
      ],
      "payable": false,
      "stateMutability": "view",
      "type": "function"
    },
    {
      "constant": true,
      "inputs": [
        {
          "name": "",
          "type": "address"
        }
      ],
      "name": "joined",
      "outputs": [
        {
          "name": "",
          "type": "uint256"
        }
      ],
      "payable": false,
      "stateMutability": "view",
      "type": "function"
    },
    {
      "inputs": [],
      "payable": false,
      "stateMutability": "nonpayable",
      "type": "constructor"
    },
    {
      "payable": true,
      "stateMutability": "payable",
      "type": "fallback"
    },
    {
      "constant": false,
      "inputs": [],
      "name": "withdrawFund",
      "outputs": [],
      "payable": false,
      "stateMutability": "nonpayable",
      "type": "function"
    },
    {
      "constant": false,
      "inputs": [],
      "name": "withdraw",
      "outputs": [],
      "payable": false,
      "stateMutability": "nonpayable",
      "type": "function"
    }
  ],
  "bytecode": "0x608060405266470de4df8200006003556000600460006101000a81548160ff02191690831515021790555034801561003657600080fd5b50336000806101000a81548173ffffffffffffffffffffffffffffffffffffffff021916908373ffffffffffffffffffffffffffffffffffffffff16021790555062278d004201600281905550610906806100926000396000f300608060405260043610610083576000357c0100000000000000000000000000000000000000000000000000000000900463ffffffff1680633197cbb6146102945780633ccfd60b146102bf578063597e1fb5146102d6578063a035b1fe14610305578063a6c3e6b914610330578063e07fa3c114610387578063f887d0191461039e575b600254421080156100a15750600460009054906101000a900460ff16155b1515610115576040517f08c379a000000000000000000000000000000000000000000000000000000000815260040180806020018281038252600f8152602001807fe4bc97e7adb9e5b7b2e7bb93e69d9f000000000000000000000000000000000081525060200191505060405180910390fd5b6000600160003373ffffffffffffffffffffffffffffffffffffffff1673ffffffffffffffffffffffffffffffffffffffff168152602001908152602001600020541415156101cc576040517f08c379a00000000000000000000000000000000000000000000000000000000081526004018080602001828103825260188152602001807fe4bda0e5b7b2e7bb8fe58f82e4b88ee8bf87e4bc97e7adb9000000000000000081525060200191505060405180910390fd5b6003543410151515610246576040517f08c379a000000000000000000000000000000000000000000000000000000000815260040180806020018281038252600f8152602001807fe587bae4bbb7e5a4aae4bd8ee4ba86000000000000000000000000000000000081525060200191505060405180910390fd5b34600160003373ffffffffffffffffffffffffffffffffffffffff1673ffffffffffffffffffffffffffffffffffffffff168152602001908152602001600020819055506102926103f5565b005b3480156102a057600080fd5b506102a9610440565b6040518082815260200191505060405180910390f35b3480156102cb57600080fd5b506102d4610446565b005b3480156102e257600080fd5b506102eb6106ae565b604051808215151515815260200191505060405180910390f35b34801561031157600080fd5b5061031a6106c1565b6040518082815260200191505060405180910390f35b34801561033c57600080fd5b506103456106c7565b604051808273ffffffffffffffffffffffffffffffffffffffff1673ffffffffffffffffffffffffffffffffffffffff16815260200191505060405180910390f35b34801561039357600080fd5b5061039c6106ec565b005b3480156103aa57600080fd5b506103df600480360381019080803573ffffffffffffffffffffffffffffffffffffffff1690602001909291905050506108c2565b6040518082815260200191505060405180910390f35b600066071afd498d0000670de0b6b3a76400003073ffffffffffffffffffffffffffffffffffffffff163181151561042957fe5b040290508066470de4df8200000160038190555050565b60025481565b600254421115156104bf576040517f08c379a000000000000000000000000000000000000000000000000000000000815260040180806020018281038252601b8152602001807fe8bf98e69caae588b0e4bc97e7adb9e7bb93e69d9fe697b6e997b4000000000081525060200191505060405180910390fd5b600460009054906101000a900460ff1615151561056a576040517f08c379a00000000000000000000000000000000000000000000000000000000081526004018080602001828103825260248152602001807fe4bc97e7adb9e8bebee6a087efbc8ce4bc97e7adb9e8b584e98791e5b7b2e68f81526020017f90e58f960000000000000000000000000000000000000000000000000000000081525060400191505060405180910390fd5b3073ffffffffffffffffffffffffffffffffffffffff1631678ac7230489e80000111515610626576040517f08c379a00000000000000000000000000000000000000000000000000000000081526004018080602001828103825260248152602001807fe4bc97e7adb9e8bebee6a087efbc8ce4bda0e6b2a1e6b395e68f90e58f96e8b581526020017f84e987910000000000000000000000000000000000000000000000000000000081525060400191505060405180910390fd5b3373ffffffffffffffffffffffffffffffffffffffff166108fc600160003373ffffffffffffffffffffffffffffffffffffffff1673ffffffffffffffffffffffffffffffffffffffff168152602001908152602001600020549081150290604051600060405180830381858888f193505050501580156106ab573d6000803e3d6000fd5b50565b600460009054906101000a900460ff1681565b60035481565b6000809054906101000a900473ffffffffffffffffffffffffffffffffffffffff1681565b6000809054906101000a900473ffffffffffffffffffffffffffffffffffffffff1673ffffffffffffffffffffffffffffffffffffffff163373ffffffffffffffffffffffffffffffffffffffff161415156107b0576040517f08c379a000000000000000000000000000000000000000000000000000000000815260040180806020018281038252600f8152602001807fe4bda0e4b88de698afe4bd9ce88085000000000000000000000000000000000081525060200191505060405180910390fd5b678ac7230489e800003073ffffffffffffffffffffffffffffffffffffffff163110151515610847576040517f08c379a00000000000000000000000000000000000000000000000000000000081526004018080602001828103825260158152602001807fe69caae8bebee588b0e4bc97e7adb9e79baee6a087000000000000000000000081525060200191505060405180910390fd5b6001600460006101000a81548160ff0219169083151502179055503373ffffffffffffffffffffffffffffffffffffffff166108fc3073ffffffffffffffffffffffffffffffffffffffff16319081150290604051600060405180830381858888f193505050501580156108bf573d6000803e3d6000fd5b50565b600160205280600052604060002060009150905054815600a165627a7a723058201289ed23261bb7b3b8ef1d612f5cde729a0c789bcd2113f0599c4564454bd72f0029",
  "source": "pragma solidity >=0.4.21 <0.7.0;\n\ncontract Crowdfunding {\n    // 创作者\n    address public author;\n\n    // 参与金额\n    mapping(address => uint) public joined;\n\n    // 众筹目标\n    uint constant Target = 10 ether;\n\n    // 众筹截止时间\n    uint public endTime;\n\n    // 记录当前众筹价格\n    uint public price  = 0.02 ether ;\n\n    // 作者提取资金之后，关闭众筹\n    bool public closed = false;\n\n    // 部署合约时调用，初始化作者以及众筹结束时间\n    constructor() public {\n        author = msg.sender;\n        endTime = now + 30 days;\n    }\n\n    // 更新价格，这是一个内部函数\n    function updatePrice() internal {\n        uint rise = address(this).balance / 1 ether * 0.002 ether;\n        price = 0.02 ether + rise;\n    }\n\n    // 用户向合约转账时 触发的回调函数\n    function () external payable {\n        require(now < endTime && !closed  , \"众筹已结束\");\n        require(joined[msg.sender] == 0 , \"你已经参与过众筹\");\n\n        require (msg.value >= price, \"出价太低了\");\n        joined[msg.sender] = msg.value;\n\n        updatePrice();\n    } \n\n    // 作者提取资金\n    function withdrawFund() external {\n        require(msg.sender == author, \"你不是作者\");\n        require(address(this).balance >= Target, \"未达到众筹目标\");\n        closed = true;   \n        msg.sender.transfer(address(this).balance);\n    }\n\n    // 读者赎回资金\n    function withdraw() external {\n        require(now > endTime, \"还未到众筹结束时间\");\n        require(!closed, \"众筹达标，众筹资金已提取\");\n        require(Target > address(this).balance, \"众筹达标，你没法提取资金\");\n\n        msg.sender.transfer(joined[msg.sender]);\n    }\n\n}",
  "sourcePath": "/Users/chanjerry/Documents/GitHub/blockchain/crypto_zoombie/bare-box/contracts/Crowdfunding.sol",
  "compiler": {
    "name": "solc",
    "version": "0.4.24+commit.e67f0147.Emscripten.clang"
  },
  "schemaVersion": "2.0.1",
  "updatedAt": "2021-11-28T13:50:04.645Z"
}