{
  "contractName": "ZombieFactory",
  "abi": [
    {
      "constant": true,
      "inputs": [
        {
          "name": "",
          "type": "address"
        }
      ],
      "name": "zombieOwnerCount",
      "outputs": [
        {
          "name": "",
          "type": "uint256"
        }
      ],
      "payable": false,
      "stateMutability": "view",
      "type": "function"
    },
    {
      "constant": true,
      "inputs": [
        {
          "name": "",
          "type": "uint256"
        }
      ],
      "name": "zombieToOwner",
      "outputs": [
        {
          "name": "",
          "type": "address"
        }
      ],
      "payable": false,
      "stateMutability": "view",
      "type": "function"
    },
    {
      "constant": true,
      "inputs": [],
      "name": "owner",
      "outputs": [
        {
          "name": "",
          "type": "address"
        }
      ],
      "payable": false,
      "stateMutability": "view",
      "type": "function"
    },
    {
      "constant": true,
      "inputs": [
        {
          "name": "",
          "type": "uint256"
        }
      ],
      "name": "zombieArray",
      "outputs": [
        {
          "name": "id",
          "type": "uint256"
        },
        {
          "name": "name",
          "type": "string"
        },
        {
          "name": "dna",
          "type": "uint256"
        },
        {
          "name": "level",
          "type": "uint256"
        },
        {
          "name": "xp",
          "type": "uint256"
        },
        {
          "name": "nextAdventuerTimestamp",
          "type": "uint256"
        },
        {
          "name": "nextFeedTimestamp",
          "type": "uint256"
        }
      ],
      "payable": false,
      "stateMutability": "view",
      "type": "function"
    },
    {
      "constant": false,
      "inputs": [
        {
          "name": "newOwner",
          "type": "address"
        }
      ],
      "name": "transferOwnership",
      "outputs": [],
      "payable": false,
      "stateMutability": "nonpayable",
      "type": "function"
    },
    {
      "anonymous": false,
      "inputs": [
        {
          "indexed": false,
          "name": "name",
          "type": "string"
        }
      ],
      "name": "createZombieEvent",
      "type": "event"
    },
    {
      "anonymous": false,
      "inputs": [
        {
          "indexed": true,
          "name": "previousOwner",
          "type": "address"
        },
        {
          "indexed": true,
          "name": "newOwner",
          "type": "address"
        }
      ],
      "name": "OwnershipTransferred",
      "type": "event"
    },
    {
      "constant": false,
      "inputs": [
        {
          "name": "name",
          "type": "string"
        }
      ],
      "name": "createZoombie",
      "outputs": [],
      "payable": false,
      "stateMutability": "nonpayable",
      "type": "function"
    }
  ],
  "bytecode": "0x60806040526010600155600154600a0a600255336000806101000a81548173ffffffffffffffffffffffffffffffffffffffff021916908373ffffffffffffffffffffffffffffffffffffffff160217905550610b01806100616000396000f300608060405260043610610078576000357c0100000000000000000000000000000000000000000000000000000000900463ffffffff1680632d7682c91461007d5780633dca7430146100d4578063528b7b8f1461013d5780638da5cb5b146101aa578063d5c1ae5b14610201578063f2fde38b146102d1575b600080fd5b34801561008957600080fd5b506100be600480360381019080803573ffffffffffffffffffffffffffffffffffffffff169060200190929190505050610314565b6040518082815260200191505060405180910390f35b3480156100e057600080fd5b5061013b600480360381019080803590602001908201803590602001908080601f016020809104026020016040519081016040528093929190818152602001838380828437820191505050505050919291929050505061032c565b005b34801561014957600080fd5b506101686004803603810190808035906020019092919050505061064d565b604051808273ffffffffffffffffffffffffffffffffffffffff1673ffffffffffffffffffffffffffffffffffffffff16815260200191505060405180910390f35b3480156101b657600080fd5b506101bf610680565b604051808273ffffffffffffffffffffffffffffffffffffffff1673ffffffffffffffffffffffffffffffffffffffff16815260200191505060405180910390f35b34801561020d57600080fd5b5061022c600480360381019080803590602001909291905050506106a5565b6040518088815260200180602001878152602001868152602001858152602001848152602001838152602001828103825288818151815260200191508051906020019080838360005b83811015610290578082015181840152602081019050610275565b50505050905090810190601f1680156102bd5780820380516001836020036101000a031916815260200191505b509850505050505050505060405180910390f35b3480156102dd57600080fd5b50610312600480360381019080803573ffffffffffffffffffffffffffffffffffffffff16906020019092919050505061078e565b005b60036020528060005260406000206000915090505481565b6000806103376109f2565b6002600360003373ffffffffffffffffffffffffffffffffffffffff1673ffffffffffffffffffffffffffffffffffffffff168152602001908152602001600020541015156103ee576040517f08c379a00000000000000000000000000000000000000000000000000000000081526004018080602001828103825260178152602001807f6f6e6c792063616e206d696e742032205a6f6f6d62696500000000000000000081525060200191505060405180910390fd5b6104416001600360003373ffffffffffffffffffffffffffffffffffffffff1673ffffffffffffffffffffffffffffffffffffffff168152602001908152602001600020546108e390919063ffffffff16565b600360003373ffffffffffffffffffffffffffffffffffffffff1673ffffffffffffffffffffffffffffffffffffffff1681526020019081526020016000208190555061048d84610901565b9250600580549050915060e060405190810160405280838152602001858152602001848152602001600081526020016000815260200142815260200142815250905060058190806001815401808255809150509060018203906000526020600020906007020160009091929091909150600082015181600001556020820151816001019080519060200190610523929190610a30565b5060408201518160020155606082015181600301556080820151816004015560a0820151816005015560c08201518160060155505050336004600084815260200190815260200160002060006101000a81548173ffffffffffffffffffffffffffffffffffffffff021916908373ffffffffffffffffffffffffffffffffffffffff1602179055507f5c25cb5398a74b6cf5d98432e382f95b980d97d32b1d4ffff88c39823b3a2411846040518080602001828103825283818151815260200191508051906020019080838360005b8381101561060d5780820151818401526020810190506105f2565b50505050905090810190601f16801561063a5780820380516001836020036101000a031916815260200191505b509250505060405180910390a150505050565b60046020528060005260406000206000915054906101000a900473ffffffffffffffffffffffffffffffffffffffff1681565b6000809054906101000a900473ffffffffffffffffffffffffffffffffffffffff1681565b6005818154811015156106b457fe5b9060005260206000209060070201600091509050806000015490806001018054600181600116156101000203166002900480601f0160208091040260200160405190810160405280929190818152602001828054600181600116156101000203166002900480156107665780601f1061073b57610100808354040283529160200191610766565b820191906000526020600020905b81548152906001019060200180831161074957829003601f168201915b5050505050908060020154908060030154908060040154908060050154908060060154905087565b6000809054906101000a900473ffffffffffffffffffffffffffffffffffffffff1673ffffffffffffffffffffffffffffffffffffffff163373ffffffffffffffffffffffffffffffffffffffff161415156107e957600080fd5b600073ffffffffffffffffffffffffffffffffffffffff168173ffffffffffffffffffffffffffffffffffffffff161415151561082557600080fd5b8073ffffffffffffffffffffffffffffffffffffffff166000809054906101000a900473ffffffffffffffffffffffffffffffffffffffff1673ffffffffffffffffffffffffffffffffffffffff167f8be0079c531659141344cd1fd0a4f28419497f9722a3daafe3b4186f6b6457e060405160405180910390a3806000806101000a81548173ffffffffffffffffffffffffffffffffffffffff021916908373ffffffffffffffffffffffffffffffffffffffff16021790555050565b60008082840190508381101515156108f757fe5b8091505092915050565b600060025482426040516020018083805190602001908083835b602083101515610940578051825260208201915060208101905060208303925061091b565b6001836020036101000a038019825116818451168082178552505050505050905001828152602001925050506040516020818303038152906040526040518082805190602001908083835b6020831015156109b0578051825260208201915060208101905060208303925061098b565b6001836020036101000a0380198251168184511680821785525050505050509050019150506040518091039020600190048115156109ea57fe5b069050919050565b60e060405190810160405280600081526020016060815260200160008152602001600081526020016000815260200160008152602001600081525090565b828054600181600116156101000203166002900490600052602060002090601f016020900481019282601f10610a7157805160ff1916838001178555610a9f565b82800160010185558215610a9f579182015b82811115610a9e578251825591602001919060010190610a83565b5b509050610aac9190610ab0565b5090565b610ad291905b80821115610ace576000816000905550600101610ab6565b5090565b905600a165627a7a723058203d4837fd08503299f4e393f3acc140508fc62f82f760c6de9f4cd78db49778020029",
  "source": "pragma solidity ^0.4.22;\n\nimport './safemath.sol';\nimport './ownable.sol';\n\ncontract ZombieFactory is Ownable{\n    \n    using SafeMath for uint;\n    \n    uint dnaDigits = 16;\n    uint dnaModulus = 10 ** dnaDigits;\n    uint constant Day = 1 days;\n    uint constant Minutes = 1 minutes;\n    uint constant xp_per_day = 250e18;\n    \n    struct Zombie {\n        uint id;\n        string name;\n        uint dna;\n        uint level;\n        uint xp;\n        uint nextAdventuerTimestamp;\n        uint nextFeedTimestamp;\n    }\n    \n    // 地址拥有僵尸数量映射：拥有者 => 僵尸数量\n    mapping (address=>uint) public zombieOwnerCount;\n    // 僵尸拥有者映射：僵尸ID => 拥有者\n    mapping (uint=>address) public zombieToOwner;\n    \n    // mapping (uint=>Zoombie) public zoombieLib;\n    // 所有僵尸集合\n    Zombie[] public zombieArray;\n    \n    event createZombieEvent(string name);\n    \n    function createZoombie(string name) public {\n        // 每个人可以mint两只\n        require(zombieOwnerCount[msg.sender] < 2, \"only can mint 2 Zoombie\");\n        zombieOwnerCount[msg.sender] = zombieOwnerCount[msg.sender].add(1);\n        \n        uint random_dna = generateRandomDna(name);\n        uint zombieNum = zombieArray.length;\n        Zombie memory new_zombie = Zombie(zombieNum, name, random_dna, 0, 0, block.timestamp, block.timestamp);\n        zombieArray.push(new_zombie);\n        zombieToOwner[zombieNum] = msg.sender;\n        emit createZombieEvent(name);\n    }\n    \n    // 根据名字随机生成16位dna数字\n    function generateRandomDna(string name) private returns (uint) {\n        return uint(keccak256(abi.encodePacked(name, block.timestamp))) % dnaModulus;\n    }\n    \n    \n}",
  "sourcePath": "/Users/chanjerry/Documents/GitHub/blockchain/crypto_zoombie/bare-box/contracts/ZombieFactory.sol",
  "compiler": {
    "name": "solc",
    "version": "0.4.24+commit.e67f0147.Emscripten.clang"
  },
  "schemaVersion": "2.0.1",
  "updatedAt": "2021-11-29T05:59:52.477Z"
}