{
  "contractName": "ZoombieFactory",
  "abi": [
    {
      "constant": true,
      "inputs": [
        {
          "name": "",
          "type": "address"
        }
      ],
      "name": "zoombieOwnerCount",
      "outputs": [
        {
          "name": "",
          "type": "uint256"
        }
      ],
      "payable": false,
      "stateMutability": "view",
      "type": "function"
    },
    {
      "constant": true,
      "inputs": [
        {
          "name": "",
          "type": "uint256"
        }
      ],
      "name": "zombieToOwner",
      "outputs": [
        {
          "name": "",
          "type": "address"
        }
      ],
      "payable": false,
      "stateMutability": "view",
      "type": "function"
    },
    {
      "constant": true,
      "inputs": [
        {
          "name": "",
          "type": "uint256"
        }
      ],
      "name": "zoombieArray",
      "outputs": [
        {
          "name": "id",
          "type": "uint256"
        },
        {
          "name": "name",
          "type": "string"
        },
        {
          "name": "dna",
          "type": "uint256"
        },
        {
          "name": "level",
          "type": "uint256"
        },
        {
          "name": "xp",
          "type": "uint256"
        },
        {
          "name": "nextAdventuerTimestamp",
          "type": "uint256"
        },
        {
          "name": "nextFeedTimestamp",
          "type": "uint256"
        }
      ],
      "payable": false,
      "stateMutability": "view",
      "type": "function"
    },
    {
      "anonymous": false,
      "inputs": [
        {
          "indexed": false,
          "name": "name",
          "type": "string"
        }
      ],
      "name": "createZoombieEvent",
      "type": "event"
    },
    {
      "constant": false,
      "inputs": [
        {
          "name": "name",
          "type": "string"
        }
      ],
      "name": "createZoombie",
      "outputs": [],
      "payable": false,
      "stateMutability": "nonpayable",
      "type": "function"
    }
  ],
  "bytecode": "0x60806040526010600055600054600a0a60015534801561001e57600080fd5b506108d68061002e6000396000f300608060405260043610610062576000357c0100000000000000000000000000000000000000000000000000000000900463ffffffff1680633dca743014610067578063480af8bc146100d0578063528b7b8f146101275780635f0f1f7f14610194575b600080fd5b34801561007357600080fd5b506100ce600480360381019080803590602001908201803590602001908080601f0160208091040260200160405190810160405280939291908181526020018383808284378201915050505050509192919290505050610264565b005b3480156100dc57600080fd5b50610111600480360381019080803573ffffffffffffffffffffffffffffffffffffffff169060200190929190505050610584565b6040518082815260200191505060405180910390f35b34801561013357600080fd5b506101526004803603810190808035906020019092919050505061059c565b604051808273ffffffffffffffffffffffffffffffffffffffff1673ffffffffffffffffffffffffffffffffffffffff16815260200191505060405180910390f35b3480156101a057600080fd5b506101bf600480360381019080803590602001909291905050506105cf565b6040518088815260200180602001878152602001868152602001858152602001848152602001838152602001828103825288818151815260200191508051906020019080838360005b83811015610223578082015181840152602081019050610208565b50505050905090810190601f1680156102505780820380516001836020036101000a031916815260200191505b509850505050505050505060405180910390f35b60008061026f6107c7565b60028060003373ffffffffffffffffffffffffffffffffffffffff1673ffffffffffffffffffffffffffffffffffffffff16815260200190815260200160002054101515610325576040517f08c379a00000000000000000000000000000000000000000000000000000000081526004018080602001828103825260178152602001807f6f6e6c792063616e206d696e742032205a6f6f6d62696500000000000000000081525060200191505060405180910390fd5b6103786001600260003373ffffffffffffffffffffffffffffffffffffffff1673ffffffffffffffffffffffffffffffffffffffff168152602001908152602001600020546106b890919063ffffffff16565b600260003373ffffffffffffffffffffffffffffffffffffffff1673ffffffffffffffffffffffffffffffffffffffff168152602001908152602001600020819055506103c4846106d6565b9250600480549050915060e06040519081016040528083815260200185815260200184815260200160008152602001600081526020014281526020014281525090506004819080600181540180825580915050906001820390600052602060002090600702016000909192909190915060008201518160000155602082015181600101908051906020019061045a929190610805565b5060408201518160020155606082015181600301556080820151816004015560a0820151816005015560c08201518160060155505050336003600084815260200190815260200160002060006101000a81548173ffffffffffffffffffffffffffffffffffffffff021916908373ffffffffffffffffffffffffffffffffffffffff1602179055507f7dcfc3870460efd24b49cc10acda187291c8541b92463e2e9e08c9f5b4c951ca846040518080602001828103825283818151815260200191508051906020019080838360005b83811015610544578082015181840152602081019050610529565b50505050905090810190601f1680156105715780820380516001836020036101000a031916815260200191505b509250505060405180910390a150505050565b60026020528060005260406000206000915090505481565b60036020528060005260406000206000915054906101000a900473ffffffffffffffffffffffffffffffffffffffff1681565b6004818154811015156105de57fe5b9060005260206000209060070201600091509050806000015490806001018054600181600116156101000203166002900480601f0160208091040260200160405190810160405280929190818152602001828054600181600116156101000203166002900480156106905780601f1061066557610100808354040283529160200191610690565b820191906000526020600020905b81548152906001019060200180831161067357829003601f168201915b5050505050908060020154908060030154908060040154908060050154908060060154905087565b60008082840190508381101515156106cc57fe5b8091505092915050565b600060015482426040516020018083805190602001908083835b60208310151561071557805182526020820191506020810190506020830392506106f0565b6001836020036101000a038019825116818451168082178552505050505050905001828152602001925050506040516020818303038152906040526040518082805190602001908083835b6020831015156107855780518252602082019150602081019050602083039250610760565b6001836020036101000a0380198251168184511680821785525050505050509050019150506040518091039020600190048115156107bf57fe5b069050919050565b60e060405190810160405280600081526020016060815260200160008152602001600081526020016000815260200160008152602001600081525090565b828054600181600116156101000203166002900490600052602060002090601f016020900481019282601f1061084657805160ff1916838001178555610874565b82800160010185558215610874579182015b82811115610873578251825591602001919060010190610858565b5b5090506108819190610885565b5090565b6108a791905b808211156108a357600081600090555060010161088b565b5090565b905600a165627a7a723058201919e73cf7cf1c39c48e900b1494eca2079b75c032cf20280beb3d2a0fb915810029",
  "source": "pragma solidity ^0.4.22;\n\nimport './safemath.sol';\n\ncontract ZoombieFactory {\n    \n    using SafeMath for uint;\n    \n    uint dnaDigits = 16;\n    uint dnaModulus = 10 ** dnaDigits;\n    uint constant Day = 1 days;\n    uint constant Minutes = 1 minutes;\n    uint constant xp_per_day = 250e18;\n    \n    struct Zoombie {\n        uint id;\n        string name;\n        uint dna;\n        uint level;\n        uint xp;\n        uint nextAdventuerTimestamp;\n        uint nextFeedTimestamp;\n    }\n    \n    // 地址拥有僵尸数量映射：拥有者 => 僵尸数量\n    mapping (address=>uint) public zoombieOwnerCount;\n    // 僵尸拥有者映射：僵尸ID => 拥有者\n    mapping (uint=>address) public zombieToOwner;\n    \n    // mapping (uint=>Zoombie) public zoombieLib;\n    // 所有僵尸集合\n    Zoombie[] public zoombieArray;\n    \n    event createZoombieEvent(string name);\n    \n    function createZoombie(string name) public {\n        // 每个人可以mint两只\n        require(zoombieOwnerCount[msg.sender] < 2, \"only can mint 2 Zoombie\");\n        zoombieOwnerCount[msg.sender] = zoombieOwnerCount[msg.sender].add(1);\n        \n        uint random_dna = generateRandomDna(name);\n        uint zoombieNum = zoombieArray.length;\n        Zoombie memory new_zoombie = Zoombie(zoombieNum, name, random_dna, 0, 0, block.timestamp, block.timestamp);\n        zoombieArray.push(new_zoombie);\n        zombieToOwner[zoombieNum] = msg.sender;\n        emit createZoombieEvent(name);\n    }\n    \n    // 根据名字随机生成16位dna数字\n    function generateRandomDna(string name) private returns (uint) {\n        return uint(keccak256(abi.encodePacked(name, block.timestamp))) % dnaModulus;\n    }\n    \n    \n}",
  "sourcePath": "/Users/chanjerry/Documents/GitHub/blockchain/crypto_zoombie/bare-box/contracts/ZoombieFactory.sol",
  "compiler": {
    "name": "solc",
    "version": "0.4.24+commit.e67f0147.Emscripten.clang"
  },
  "schemaVersion": "2.0.1",
  "updatedAt": "2021-11-23T08:36:31.455Z"
}