{
  "contractName": "ZoombieUpgrader",
  "abi": [
    {
      "constant": false,
      "inputs": [
        {
          "name": "name",
          "type": "string"
        }
      ],
      "name": "createZoombie",
      "outputs": [],
      "payable": false,
      "stateMutability": "nonpayable",
      "type": "function"
    },
    {
      "constant": true,
      "inputs": [
        {
          "name": "",
          "type": "address"
        }
      ],
      "name": "zoombieOwnerCount",
      "outputs": [
        {
          "name": "",
          "type": "uint256"
        }
      ],
      "payable": false,
      "stateMutability": "view",
      "type": "function"
    },
    {
      "constant": true,
      "inputs": [
        {
          "name": "",
          "type": "uint256"
        }
      ],
      "name": "zombieToOwner",
      "outputs": [
        {
          "name": "",
          "type": "address"
        }
      ],
      "payable": false,
      "stateMutability": "view",
      "type": "function"
    },
    {
      "constant": true,
      "inputs": [
        {
          "name": "",
          "type": "uint256"
        }
      ],
      "name": "zoombieArray",
      "outputs": [
        {
          "name": "id",
          "type": "uint256"
        },
        {
          "name": "name",
          "type": "string"
        },
        {
          "name": "dna",
          "type": "uint256"
        },
        {
          "name": "level",
          "type": "uint256"
        },
        {
          "name": "xp",
          "type": "uint256"
        },
        {
          "name": "nextAdventuerTimestamp",
          "type": "uint256"
        },
        {
          "name": "nextFeedTimestamp",
          "type": "uint256"
        }
      ],
      "payable": false,
      "stateMutability": "view",
      "type": "function"
    },
    {
      "constant": true,
      "inputs": [
        {
          "name": "owner",
          "type": "address"
        }
      ],
      "name": "getAllZoombie",
      "outputs": [
        {
          "name": "",
          "type": "uint256[]"
        }
      ],
      "payable": false,
      "stateMutability": "view",
      "type": "function"
    },
    {
      "constant": true,
      "inputs": [
        {
          "name": "owner",
          "type": "address"
        }
      ],
      "name": "getZoombieCount",
      "outputs": [
        {
          "name": "",
          "type": "uint256"
        }
      ],
      "payable": false,
      "stateMutability": "view",
      "type": "function"
    },
    {
      "anonymous": false,
      "inputs": [
        {
          "indexed": false,
          "name": "name",
          "type": "string"
        }
      ],
      "name": "createZoombieEvent",
      "type": "event"
    },
    {
      "constant": false,
      "inputs": [
        {
          "name": "_zoombieId",
          "type": "uint256"
        }
      ],
      "name": "adventure",
      "outputs": [],
      "payable": false,
      "stateMutability": "nonpayable",
      "type": "function"
    },
    {
      "constant": false,
      "inputs": [
        {
          "name": "_zoombieId",
          "type": "uint256"
        }
      ],
      "name": "feed",
      "outputs": [],
      "payable": true,
      "stateMutability": "payable",
      "type": "function"
    },
    {
      "constant": true,
      "inputs": [
        {
          "name": "_current_level",
          "type": "uint256"
        }
      ],
      "name": "xp_required",
      "outputs": [
        {
          "name": "xp_to_next_level",
          "type": "uint256"
        }
      ],
      "payable": false,
      "stateMutability": "view",
      "type": "function"
    },
    {
      "constant": false,
      "inputs": [
        {
          "name": "_zoombieId",
          "type": "uint256"
        }
      ],
      "name": "level_up",
      "outputs": [],
      "payable": false,
      "stateMutability": "nonpayable",
      "type": "function"
    }
  ],
  "bytecode": "0x60806040526010600055600054600a0a60015534801561001e57600080fd5b50610fa48061002e6000396000f3006080604052600436106100a4576000357c0100000000000000000000000000000000000000000000000000000000900463ffffffff1680633dca7430146100a9578063480af8bc14610112578063528b7b8f146101695780635f0f1f7f146101d6578063876a61cd146102a6578063902494481461033e578063a9ef134c1461036b578063aca10be3146103c2578063b00b52f114610403578063f59dfdfb14610430575b600080fd5b3480156100b557600080fd5b50610110600480360381019080803590602001908201803590602001908080601f0160208091040260200160405190810160405280939291908181526020018383808284378201915050505050509192919290505050610450565b005b34801561011e57600080fd5b50610153600480360381019080803573ffffffffffffffffffffffffffffffffffffffff169060200190929190505050610770565b6040518082815260200191505060405180910390f35b34801561017557600080fd5b5061019460048036038101908080359060200190929190505050610788565b604051808273ffffffffffffffffffffffffffffffffffffffff1673ffffffffffffffffffffffffffffffffffffffff16815260200191505060405180910390f35b3480156101e257600080fd5b50610201600480360381019080803590602001909291905050506107bb565b6040518088815260200180602001878152602001868152602001858152602001848152602001838152602001828103825288818151815260200191508051906020019080838360005b8381101561026557808201518184015260208101905061024a565b50505050905090810190601f1680156102925780820380516001836020036101000a031916815260200191505b509850505050505050505060405180910390f35b3480156102b257600080fd5b506102e7600480360381019080803573ffffffffffffffffffffffffffffffffffffffff1690602001909291905050506108a4565b6040518080602001828103825283818151815260200191508051906020019060200280838360005b8381101561032a57808201518184015260208101905061030f565b505050509050019250505060405180910390f35b34801561034a57600080fd5b50610369600480360381019080803590602001909291905050506109d8565b005b34801561037757600080fd5b506103ac600480360381019080803573ffffffffffffffffffffffffffffffffffffffff169060200190929190505050610afe565b6040518082815260200191505060405180910390f35b3480156103ce57600080fd5b506103ed60048036038101908080359060200190929190505050610b47565b6040518082815260200191505060405180910390f35b34801561040f57600080fd5b5061042e60048036038101908080359060200190929190505050610b62565b005b61044e60048036038101908080359060200190929190505050610c68565b005b60008061045b610e95565b60028060003373ffffffffffffffffffffffffffffffffffffffff1673ffffffffffffffffffffffffffffffffffffffff16815260200190815260200160002054101515610511576040517f08c379a00000000000000000000000000000000000000000000000000000000081526004018080602001828103825260178152602001807f6f6e6c792063616e206d696e742032205a6f6f6d62696500000000000000000081525060200191505060405180910390fd5b6105646001600260003373ffffffffffffffffffffffffffffffffffffffff1673ffffffffffffffffffffffffffffffffffffffff16815260200190815260200160002054610d8690919063ffffffff16565b600260003373ffffffffffffffffffffffffffffffffffffffff1673ffffffffffffffffffffffffffffffffffffffff168152602001908152602001600020819055506105b084610da4565b9250600480549050915060e060405190810160405280838152602001858152602001848152602001600081526020016000815260200142815260200142815250905060048190806001815401808255809150509060018203906000526020600020906007020160009091929091909150600082015181600001556020820151816001019080519060200190610646929190610ed3565b5060408201518160020155606082015181600301556080820151816004015560a0820151816005015560c08201518160060155505050336003600084815260200190815260200160002060006101000a81548173ffffffffffffffffffffffffffffffffffffffff021916908373ffffffffffffffffffffffffffffffffffffffff1602179055507f7dcfc3870460efd24b49cc10acda187291c8541b92463e2e9e08c9f5b4c951ca846040518080602001828103825283818151815260200191508051906020019080838360005b83811015610730578082015181840152602081019050610715565b50505050905090810190601f16801561075d5780820380516001836020036101000a031916815260200191505b509250505060405180910390a150505050565b60026020528060005260406000206000915090505481565b60036020528060005260406000206000915054906101000a900473ffffffffffffffffffffffffffffffffffffffff1681565b6004818154811015156107ca57fe5b9060005260206000209060070201600091509050806000015490806001018054600181600116156101000203166002900480601f01602080910402602001604051908101604052809291908181526020018280546001816001161561010002031660029004801561087c5780601f106108515761010080835404028352916020019161087c565b820191906000526020600020905b81548152906001019060200180831161085f57829003601f168201915b5050505050908060020154908060030154908060040154908060050154908060060154905087565b60606000606060006108b585610afe565b9250826040519080825280602002602001820160405280156108e65781602001602082028038833980820191505090505b509150600090505b6004805490508110156109cd578473ffffffffffffffffffffffffffffffffffffffff166003600060048481548110151561092557fe5b906000526020600020906007020160000154815260200190815260200160002060009054906101000a900473ffffffffffffffffffffffffffffffffffffffff1673ffffffffffffffffffffffffffffffffffffffff1614156109c05760048181548110151561099157fe5b90600052602060002090600702016000015482828151811015156109b157fe5b90602001906020020181815250505b80806001019150506108ee565b819350505050919050565b6000610a036004838154811015156109ec57fe5b906000526020600020906007020160030154610b47565b905080600483815481101515610a1557fe5b90600052602060002090600702016004015410151515610a9d576040517f08c379a000000000000000000000000000000000000000000000000000000000815260040180806020018281038252600d8152602001807f6e6f7420656e6f7567682078700000000000000000000000000000000000000081525060200191505060405180910390fd5b80600483815481101515610aad57fe5b9060005260206000209060070201600401600082825403925050819055506001600483815481101515610adc57fe5b9060005260206000209060070201600301600082825401925050819055505050565b6000600260008373ffffffffffffffffffffffffffffffffffffffff1673ffffffffffffffffffffffffffffffffffffffff168152602001908152602001600020549050919050565b6000680d8d726b7177a8000060018301029050809050919050565b6000600482815481101515610b7357fe5b90600052602060002090600702016005015490508042111515610bfe576040517f08c379a00000000000000000000000000000000000000000000000000000000081526004018080602001828103825260098152602001807f746f6f206561726c79000000000000000000000000000000000000000000000081525060200191505060405180910390fd5b603c600483815481101515610c0f57fe5b906000526020600020906007020160050160008282540192505081905550680d8d726b7177a80000600483815481101515610c4657fe5b9060005260206000209060070201600401600082825401925050819055505050565b6000662386f26fc1000034141515610c7f57600080fd5b600482815481101515610c8e57fe5b90600052602060002090600702016006015490508042111515610d19576040517f08c379a00000000000000000000000000000000000000000000000000000000081526004018080602001828103825260098152602001807f746f6f206561726c79000000000000000000000000000000000000000000000081525060200191505060405180910390fd5b603c600483815481101515610d2a57fe5b906000526020600020906007020160060160008282540192505081905550680d8d726b7177a80000600402600483815481101515610d6457fe5b9060005260206000209060070201600401600082825401925050819055505050565b6000808284019050838110151515610d9a57fe5b8091505092915050565b600060015482426040516020018083805190602001908083835b602083101515610de35780518252602082019150602081019050602083039250610dbe565b6001836020036101000a038019825116818451168082178552505050505050905001828152602001925050506040516020818303038152906040526040518082805190602001908083835b602083101515610e535780518252602082019150602081019050602083039250610e2e565b6001836020036101000a038019825116818451168082178552505050505050905001915050604051809103902060019004811515610e8d57fe5b069050919050565b60e060405190810160405280600081526020016060815260200160008152602001600081526020016000815260200160008152602001600081525090565b828054600181600116156101000203166002900490600052602060002090601f016020900481019282601f10610f1457805160ff1916838001178555610f42565b82800160010185558215610f42579182015b82811115610f41578251825591602001919060010190610f26565b5b509050610f4f9190610f53565b5090565b610f7591905b80821115610f71576000816000905550600101610f59565b5090565b905600a165627a7a7230582007e2d80998c0564093f8bd98b20ac5af4f2c9f93ff8eb1a67bedc3417612108f0029",
  "source": "pragma solidity ^0.4.22;\n\nimport \"./ZoombieHelper.sol\";\n\ncontract ZoombieUpgrader is ZoombieHelper {\n    //可以通过冒险或喂养对zoombie进行升级\n    \n    function adventure(uint _zoombieId) external {\n        // 每次冒险可以加250xp\n        uint _nextTimestamp = zoombieArray[_zoombieId].nextAdventuerTimestamp;\n        require(block.timestamp > _nextTimestamp,\"too early\");\n        zoombieArray[_zoombieId].nextAdventuerTimestamp += Minutes;  // 测试:每分钟可以冒险一次，生产:每天可以冒险一次\n        zoombieArray[_zoombieId].xp += xp_per_day;\n    }\n    \n\n    function feed(uint _zoombieId) external payable{\n        // 每次喂养可以加1000xp\n        require(msg.value == 0.01 ether);\n        uint _nextTimestamp = zoombieArray[_zoombieId].nextFeedTimestamp;\n        require(block.timestamp > _nextTimestamp,\"too early\");\n        zoombieArray[_zoombieId].nextFeedTimestamp += Minutes;  // 测试:每分钟可以喂养一次，生产:每天可以喂养一次\n        zoombieArray[_zoombieId].xp += 4 * xp_per_day;\n    }\n    \n    function xp_required(uint _current_level) public view returns(uint xp_to_next_level) {\n        // 计算下一等级所需要的经验\n        xp_to_next_level = (_current_level + 1 ) * xp_per_day;\n        return xp_to_next_level;\n    }\n    \n    function level_up(uint _zoombieId) external {\n        uint xp_to_next_level = xp_required(zoombieArray[_zoombieId].level);\n        require(zoombieArray[_zoombieId].xp >= xp_to_next_level, \"not enough xp\");\n        zoombieArray[_zoombieId].xp -= xp_to_next_level;\n        zoombieArray[_zoombieId].level += 1;\n    }\n    \n\n    \n}",
  "sourcePath": "/Users/chanjerry/Documents/GitHub/blockchain/crypto_zoombie/bare-box/contracts/ZoombieUpgrader.sol",
  "compiler": {
    "name": "solc",
    "version": "0.4.24+commit.e67f0147.Emscripten.clang"
  },
  "schemaVersion": "2.0.1",
  "updatedAt": "2021-11-23T08:36:31.460Z"
}