{
  "contractName": "ZombieUpgrader",
  "abi": [
    {
      "constant": true,
      "inputs": [
        {
          "name": "owner",
          "type": "address"
        }
      ],
      "name": "getAllZombie",
      "outputs": [
        {
          "name": "",
          "type": "uint256[]"
        }
      ],
      "payable": false,
      "stateMutability": "view",
      "type": "function"
    },
    {
      "constant": true,
      "inputs": [
        {
          "name": "owner",
          "type": "address"
        }
      ],
      "name": "getZombieCount",
      "outputs": [
        {
          "name": "",
          "type": "uint256"
        }
      ],
      "payable": false,
      "stateMutability": "view",
      "type": "function"
    },
    {
      "constant": true,
      "inputs": [
        {
          "name": "",
          "type": "address"
        }
      ],
      "name": "zombieOwnerCount",
      "outputs": [
        {
          "name": "",
          "type": "uint256"
        }
      ],
      "payable": false,
      "stateMutability": "view",
      "type": "function"
    },
    {
      "constant": false,
      "inputs": [
        {
          "name": "name",
          "type": "string"
        }
      ],
      "name": "createZoombie",
      "outputs": [],
      "payable": false,
      "stateMutability": "nonpayable",
      "type": "function"
    },
    {
      "constant": true,
      "inputs": [
        {
          "name": "",
          "type": "uint256"
        }
      ],
      "name": "zombieToOwner",
      "outputs": [
        {
          "name": "",
          "type": "address"
        }
      ],
      "payable": false,
      "stateMutability": "view",
      "type": "function"
    },
    {
      "constant": true,
      "inputs": [],
      "name": "owner",
      "outputs": [
        {
          "name": "",
          "type": "address"
        }
      ],
      "payable": false,
      "stateMutability": "view",
      "type": "function"
    },
    {
      "constant": true,
      "inputs": [
        {
          "name": "",
          "type": "uint256"
        }
      ],
      "name": "zombieArray",
      "outputs": [
        {
          "name": "id",
          "type": "uint256"
        },
        {
          "name": "name",
          "type": "string"
        },
        {
          "name": "dna",
          "type": "uint256"
        },
        {
          "name": "level",
          "type": "uint256"
        },
        {
          "name": "xp",
          "type": "uint256"
        },
        {
          "name": "nextAdventuerTimestamp",
          "type": "uint256"
        },
        {
          "name": "nextFeedTimestamp",
          "type": "uint256"
        }
      ],
      "payable": false,
      "stateMutability": "view",
      "type": "function"
    },
    {
      "constant": false,
      "inputs": [
        {
          "name": "newOwner",
          "type": "address"
        }
      ],
      "name": "transferOwnership",
      "outputs": [],
      "payable": false,
      "stateMutability": "nonpayable",
      "type": "function"
    },
    {
      "anonymous": false,
      "inputs": [
        {
          "indexed": false,
          "name": "name",
          "type": "string"
        }
      ],
      "name": "createZombieEvent",
      "type": "event"
    },
    {
      "anonymous": false,
      "inputs": [
        {
          "indexed": true,
          "name": "previousOwner",
          "type": "address"
        },
        {
          "indexed": true,
          "name": "newOwner",
          "type": "address"
        }
      ],
      "name": "OwnershipTransferred",
      "type": "event"
    },
    {
      "constant": false,
      "inputs": [
        {
          "name": "_zombieId",
          "type": "uint256"
        }
      ],
      "name": "adventure",
      "outputs": [],
      "payable": false,
      "stateMutability": "nonpayable",
      "type": "function"
    },
    {
      "constant": false,
      "inputs": [
        {
          "name": "_zombieId",
          "type": "uint256"
        }
      ],
      "name": "feed",
      "outputs": [],
      "payable": true,
      "stateMutability": "payable",
      "type": "function"
    },
    {
      "constant": true,
      "inputs": [
        {
          "name": "_current_level",
          "type": "uint256"
        }
      ],
      "name": "xp_required",
      "outputs": [
        {
          "name": "xp_to_next_level",
          "type": "uint256"
        }
      ],
      "payable": false,
      "stateMutability": "view",
      "type": "function"
    },
    {
      "constant": false,
      "inputs": [
        {
          "name": "_zombieId",
          "type": "uint256"
        }
      ],
      "name": "level_up",
      "outputs": [],
      "payable": false,
      "stateMutability": "nonpayable",
      "type": "function"
    }
  ],
  "bytecode": "0x60806040526010600155600154600a0a600255336000806101000a81548173ffffffffffffffffffffffffffffffffffffffff021916908373ffffffffffffffffffffffffffffffffffffffff1602179055506111db806100616000396000f3006080604052600436106100ba576000357c0100000000000000000000000000000000000000000000000000000000900463ffffffff1680630496152f146100bf5780631abe9b6d146101575780632d7682c9146101ae5780633dca743014610205578063528b7b8f1461026e5780638da5cb5b146102db5780639024944814610332578063aca10be31461035f578063b00b52f1146103a0578063d5c1ae5b146103cd578063f2fde38b1461049d578063f59dfdfb146104e0575b600080fd5b3480156100cb57600080fd5b50610100600480360381019080803573ffffffffffffffffffffffffffffffffffffffff169060200190929190505050610500565b6040518080602001828103825283818151815260200191508051906020019060200280838360005b83811015610143578082015181840152602081019050610128565b505050509050019250505060405180910390f35b34801561016357600080fd5b50610198600480360381019080803573ffffffffffffffffffffffffffffffffffffffff169060200190929190505050610640565b6040518082815260200191505060405180910390f35b3480156101ba57600080fd5b506101ef600480360381019080803573ffffffffffffffffffffffffffffffffffffffff169060200190929190505050610689565b6040518082815260200191505060405180910390f35b34801561021157600080fd5b5061026c600480360381019080803590602001908201803590602001908080601f01602080910402602001604051908101604052809392919081815260200183838082843782019150505050505091929192905050506106a1565b005b34801561027a57600080fd5b50610299600480360381019080803590602001909291905050506109c2565b604051808273ffffffffffffffffffffffffffffffffffffffff1673ffffffffffffffffffffffffffffffffffffffff16815260200191505060405180910390f35b3480156102e757600080fd5b506102f06109f5565b604051808273ffffffffffffffffffffffffffffffffffffffff1673ffffffffffffffffffffffffffffffffffffffff16815260200191505060405180910390f35b34801561033e57600080fd5b5061035d60048036038101908080359060200190929190505050610a1a565b005b34801561036b57600080fd5b5061038a60048036038101908080359060200190929190505050610b40565b6040518082815260200191505060405180910390f35b3480156103ac57600080fd5b506103cb60048036038101908080359060200190929190505050610b5b565b005b3480156103d957600080fd5b506103f860048036038101908080359060200190929190505050610c61565b6040518088815260200180602001878152602001868152602001858152602001848152602001838152602001828103825288818151815260200191508051906020019080838360005b8381101561045c578082015181840152602081019050610441565b50505050905090810190601f1680156104895780820380516001836020036101000a031916815260200191505b509850505050505050505060405180910390f35b3480156104a957600080fd5b506104de600480360381019080803573ffffffffffffffffffffffffffffffffffffffff169060200190929190505050610d4a565b005b6104fe60048036038101908080359060200190929190505050610e9f565b005b60606000606060008061051286610640565b9350836040519080825280602002602001820160405280156105435781602001602082028038833980820191505090505b50925060009150600090505b600580549050811015610634578573ffffffffffffffffffffffffffffffffffffffff166004600060058481548110151561058657fe5b906000526020600020906007020160000154815260200190815260200160002060009054906101000a900473ffffffffffffffffffffffffffffffffffffffff1673ffffffffffffffffffffffffffffffffffffffff161415610627576005818154811015156105f257fe5b906000526020600020906007020160000154838381518110151561061257fe5b90602001906020020181815250506001820191505b808060010191505061054f565b82945050505050919050565b6000600360008373ffffffffffffffffffffffffffffffffffffffff1673ffffffffffffffffffffffffffffffffffffffff168152602001908152602001600020549050919050565b60036020528060005260406000206000915090505481565b6000806106ac6110cc565b6002600360003373ffffffffffffffffffffffffffffffffffffffff1673ffffffffffffffffffffffffffffffffffffffff16815260200190815260200160002054101515610763576040517f08c379a00000000000000000000000000000000000000000000000000000000081526004018080602001828103825260178152602001807f6f6e6c792063616e206d696e742032205a6f6f6d62696500000000000000000081525060200191505060405180910390fd5b6107b66001600360003373ffffffffffffffffffffffffffffffffffffffff1673ffffffffffffffffffffffffffffffffffffffff16815260200190815260200160002054610fbd90919063ffffffff16565b600360003373ffffffffffffffffffffffffffffffffffffffff1673ffffffffffffffffffffffffffffffffffffffff1681526020019081526020016000208190555061080284610fdb565b9250600580549050915060e06040519081016040528083815260200185815260200184815260200160008152602001600081526020014281526020014281525090506005819080600181540180825580915050906001820390600052602060002090600702016000909192909190915060008201518160000155602082015181600101908051906020019061089892919061110a565b5060408201518160020155606082015181600301556080820151816004015560a0820151816005015560c08201518160060155505050336004600084815260200190815260200160002060006101000a81548173ffffffffffffffffffffffffffffffffffffffff021916908373ffffffffffffffffffffffffffffffffffffffff1602179055507f5c25cb5398a74b6cf5d98432e382f95b980d97d32b1d4ffff88c39823b3a2411846040518080602001828103825283818151815260200191508051906020019080838360005b83811015610982578082015181840152602081019050610967565b50505050905090810190601f1680156109af5780820380516001836020036101000a031916815260200191505b509250505060405180910390a150505050565b60046020528060005260406000206000915054906101000a900473ffffffffffffffffffffffffffffffffffffffff1681565b6000809054906101000a900473ffffffffffffffffffffffffffffffffffffffff1681565b6000610a45600583815481101515610a2e57fe5b906000526020600020906007020160030154610b40565b905080600583815481101515610a5757fe5b90600052602060002090600702016004015410151515610adf576040517f08c379a000000000000000000000000000000000000000000000000000000000815260040180806020018281038252600d8152602001807f6e6f7420656e6f7567682078700000000000000000000000000000000000000081525060200191505060405180910390fd5b80600583815481101515610aef57fe5b9060005260206000209060070201600401600082825403925050819055506001600583815481101515610b1e57fe5b9060005260206000209060070201600301600082825401925050819055505050565b6000680d8d726b7177a8000060018301029050809050919050565b6000600582815481101515610b6c57fe5b90600052602060002090600702016005015490508042111515610bf7576040517f08c379a00000000000000000000000000000000000000000000000000000000081526004018080602001828103825260098152602001807f746f6f206561726c79000000000000000000000000000000000000000000000081525060200191505060405180910390fd5b603c600583815481101515610c0857fe5b906000526020600020906007020160050160008282540192505081905550680d8d726b7177a80000600583815481101515610c3f57fe5b9060005260206000209060070201600401600082825401925050819055505050565b600581815481101515610c7057fe5b9060005260206000209060070201600091509050806000015490806001018054600181600116156101000203166002900480601f016020809104026020016040519081016040528092919081815260200182805460018160011615610100020316600290048015610d225780601f10610cf757610100808354040283529160200191610d22565b820191906000526020600020905b815481529060010190602001808311610d0557829003601f168201915b5050505050908060020154908060030154908060040154908060050154908060060154905087565b6000809054906101000a900473ffffffffffffffffffffffffffffffffffffffff1673ffffffffffffffffffffffffffffffffffffffff163373ffffffffffffffffffffffffffffffffffffffff16141515610da557600080fd5b600073ffffffffffffffffffffffffffffffffffffffff168173ffffffffffffffffffffffffffffffffffffffff1614151515610de157600080fd5b8073ffffffffffffffffffffffffffffffffffffffff166000809054906101000a900473ffffffffffffffffffffffffffffffffffffffff1673ffffffffffffffffffffffffffffffffffffffff167f8be0079c531659141344cd1fd0a4f28419497f9722a3daafe3b4186f6b6457e060405160405180910390a3806000806101000a81548173ffffffffffffffffffffffffffffffffffffffff021916908373ffffffffffffffffffffffffffffffffffffffff16021790555050565b6000662386f26fc1000034141515610eb657600080fd5b600582815481101515610ec557fe5b90600052602060002090600702016006015490508042111515610f50576040517f08c379a00000000000000000000000000000000000000000000000000000000081526004018080602001828103825260098152602001807f746f6f206561726c79000000000000000000000000000000000000000000000081525060200191505060405180910390fd5b603c600583815481101515610f6157fe5b906000526020600020906007020160060160008282540192505081905550680d8d726b7177a80000600402600583815481101515610f9b57fe5b9060005260206000209060070201600401600082825401925050819055505050565b6000808284019050838110151515610fd157fe5b8091505092915050565b600060025482426040516020018083805190602001908083835b60208310151561101a5780518252602082019150602081019050602083039250610ff5565b6001836020036101000a038019825116818451168082178552505050505050905001828152602001925050506040516020818303038152906040526040518082805190602001908083835b60208310151561108a5780518252602082019150602081019050602083039250611065565b6001836020036101000a0380198251168184511680821785525050505050509050019150506040518091039020600190048115156110c457fe5b069050919050565b60e060405190810160405280600081526020016060815260200160008152602001600081526020016000815260200160008152602001600081525090565b828054600181600116156101000203166002900490600052602060002090601f016020900481019282601f1061114b57805160ff1916838001178555611179565b82800160010185558215611179579182015b8281111561117857825182559160200191906001019061115d565b5b509050611186919061118a565b5090565b6111ac91905b808211156111a8576000816000905550600101611190565b5090565b905600a165627a7a723058200753ed7beb97226b9559be299e086b2867160cdafa916810f90eee6602f09ac00029",
  "source": "pragma solidity ^0.4.22;\n\nimport \"./ZombieHelper.sol\";\n\ncontract ZombieUpgrader is ZombieHelper {\n    //可以通过冒险或喂养对zoombie进行升级\n    \n    function adventure(uint _zombieId) external {\n        // 每次冒险可以加250xp\n        uint _nextTimestamp = zombieArray[_zombieId].nextAdventuerTimestamp;\n        require(block.timestamp > _nextTimestamp,\"too early\");\n        zombieArray[_zombieId].nextAdventuerTimestamp += Minutes;  // 测试:每分钟可以冒险一次，生产:每天可以冒险一次\n        zombieArray[_zombieId].xp += xp_per_day;\n    }\n    \n\n    function feed(uint _zombieId) external payable{\n        // 每次喂养可以加1000xp\n        require(msg.value == 0.01 ether);\n        uint _nextTimestamp = zombieArray[_zombieId].nextFeedTimestamp;\n        require(block.timestamp > _nextTimestamp,\"too early\");\n        zombieArray[_zombieId].nextFeedTimestamp += Minutes;  // 测试:每分钟可以喂养一次，生产:每天可以喂养一次\n        zombieArray[_zombieId].xp += 4 * xp_per_day;\n    }\n    \n    function xp_required(uint _current_level) public view returns(uint xp_to_next_level) {\n        // 计算下一等级所需要的经验\n        xp_to_next_level = (_current_level + 1 ) * xp_per_day;\n        return xp_to_next_level;\n    }\n    \n    function level_up(uint _zombieId) external {\n        uint xp_to_next_level = xp_required(zombieArray[_zombieId].level);\n        require(zombieArray[_zombieId].xp >= xp_to_next_level, \"not enough xp\");\n        zombieArray[_zombieId].xp -= xp_to_next_level;\n        zombieArray[_zombieId].level += 1;\n    }\n    \n\n    \n}",
  "sourcePath": "/Users/chanjerry/Documents/GitHub/blockchain/crypto_zoombie/bare-box/contracts/ZombieUpgrader.sol",
  "compiler": {
    "name": "solc",
    "version": "0.4.24+commit.e67f0147.Emscripten.clang"
  },
  "schemaVersion": "2.0.1",
  "updatedAt": "2021-11-29T05:59:52.480Z"
}