{
  "contractName": "ZombieMarket",
  "abi": [
    {
      "constant": true,
      "inputs": [
        {
          "name": "owner",
          "type": "address"
        }
      ],
      "name": "getAllZombie",
      "outputs": [
        {
          "name": "",
          "type": "uint256[]"
        }
      ],
      "payable": false,
      "stateMutability": "view",
      "type": "function"
    },
    {
      "constant": false,
      "inputs": [
        {
          "name": "to",
          "type": "address"
        },
        {
          "name": "tokenId",
          "type": "uint256"
        }
      ],
      "name": "approve",
      "outputs": [],
      "payable": false,
      "stateMutability": "nonpayable",
      "type": "function"
    },
    {
      "constant": true,
      "inputs": [
        {
          "name": "owner",
          "type": "address"
        }
      ],
      "name": "getZombieCount",
      "outputs": [
        {
          "name": "",
          "type": "uint256"
        }
      ],
      "payable": false,
      "stateMutability": "view",
      "type": "function"
    },
    {
      "constant": true,
      "inputs": [
        {
          "name": "",
          "type": "uint256"
        }
      ],
      "name": "zombieGoodsArray",
      "outputs": [
        {
          "name": "",
          "type": "uint256"
        }
      ],
      "payable": false,
      "stateMutability": "view",
      "type": "function"
    },
    {
      "constant": true,
      "inputs": [
        {
          "name": "",
          "type": "address"
        }
      ],
      "name": "zombieOwnerCount",
      "outputs": [
        {
          "name": "",
          "type": "uint256"
        }
      ],
      "payable": false,
      "stateMutability": "view",
      "type": "function"
    },
    {
      "constant": false,
      "inputs": [
        {
          "name": "name",
          "type": "string"
        }
      ],
      "name": "createZoombie",
      "outputs": [],
      "payable": false,
      "stateMutability": "nonpayable",
      "type": "function"
    },
    {
      "constant": true,
      "inputs": [
        {
          "name": "",
          "type": "uint256"
        }
      ],
      "name": "zombieToOwner",
      "outputs": [
        {
          "name": "",
          "type": "address"
        }
      ],
      "payable": false,
      "stateMutability": "view",
      "type": "function"
    },
    {
      "constant": true,
      "inputs": [
        {
          "name": "tokenId",
          "type": "uint256"
        }
      ],
      "name": "ownerOf",
      "outputs": [
        {
          "name": "owner",
          "type": "address"
        }
      ],
      "payable": false,
      "stateMutability": "view",
      "type": "function"
    },
    {
      "constant": true,
      "inputs": [
        {
          "name": "owner",
          "type": "address"
        }
      ],
      "name": "balanceOf",
      "outputs": [
        {
          "name": "balance",
          "type": "uint256"
        }
      ],
      "payable": false,
      "stateMutability": "view",
      "type": "function"
    },
    {
      "constant": true,
      "inputs": [
        {
          "name": "",
          "type": "uint256"
        }
      ],
      "name": "zombieGoodsDict",
      "outputs": [
        {
          "name": "zoombie_id",
          "type": "uint256"
        },
        {
          "name": "sell_price",
          "type": "uint256"
        },
        {
          "name": "seller",
          "type": "address"
        },
        {
          "name": "index",
          "type": "uint256"
        }
      ],
      "payable": false,
      "stateMutability": "view",
      "type": "function"
    },
    {
      "constant": true,
      "inputs": [],
      "name": "owner",
      "outputs": [
        {
          "name": "",
          "type": "address"
        }
      ],
      "payable": false,
      "stateMutability": "view",
      "type": "function"
    },
    {
      "constant": false,
      "inputs": [
        {
          "name": "to",
          "type": "address"
        },
        {
          "name": "tokenId",
          "type": "uint256"
        }
      ],
      "name": "transfer",
      "outputs": [],
      "payable": false,
      "stateMutability": "nonpayable",
      "type": "function"
    },
    {
      "constant": false,
      "inputs": [
        {
          "name": "tokenId",
          "type": "uint256"
        }
      ],
      "name": "takeOwnership",
      "outputs": [],
      "payable": false,
      "stateMutability": "nonpayable",
      "type": "function"
    },
    {
      "constant": true,
      "inputs": [],
      "name": "lowest_price",
      "outputs": [
        {
          "name": "",
          "type": "uint256"
        }
      ],
      "payable": false,
      "stateMutability": "view",
      "type": "function"
    },
    {
      "constant": true,
      "inputs": [
        {
          "name": "",
          "type": "uint256"
        }
      ],
      "name": "zombieArray",
      "outputs": [
        {
          "name": "id",
          "type": "uint256"
        },
        {
          "name": "name",
          "type": "string"
        },
        {
          "name": "dna",
          "type": "uint256"
        },
        {
          "name": "level",
          "type": "uint256"
        },
        {
          "name": "xp",
          "type": "uint256"
        },
        {
          "name": "nextAdventuerTimestamp",
          "type": "uint256"
        },
        {
          "name": "nextFeedTimestamp",
          "type": "uint256"
        }
      ],
      "payable": false,
      "stateMutability": "view",
      "type": "function"
    },
    {
      "constant": false,
      "inputs": [
        {
          "name": "newOwner",
          "type": "address"
        }
      ],
      "name": "transferOwnership",
      "outputs": [],
      "payable": false,
      "stateMutability": "nonpayable",
      "type": "function"
    },
    {
      "anonymous": false,
      "inputs": [
        {
          "indexed": true,
          "name": "from",
          "type": "address"
        },
        {
          "indexed": true,
          "name": "to",
          "type": "address"
        },
        {
          "indexed": true,
          "name": "tokenId",
          "type": "uint256"
        }
      ],
      "name": "Transfer",
      "type": "event"
    },
    {
      "anonymous": false,
      "inputs": [
        {
          "indexed": true,
          "name": "owner",
          "type": "address"
        },
        {
          "indexed": true,
          "name": "approved",
          "type": "address"
        },
        {
          "indexed": true,
          "name": "tokenId",
          "type": "uint256"
        }
      ],
      "name": "Approval",
      "type": "event"
    },
    {
      "anonymous": false,
      "inputs": [
        {
          "indexed": false,
          "name": "name",
          "type": "string"
        }
      ],
      "name": "createZombieEvent",
      "type": "event"
    },
    {
      "anonymous": false,
      "inputs": [
        {
          "indexed": true,
          "name": "previousOwner",
          "type": "address"
        },
        {
          "indexed": true,
          "name": "newOwner",
          "type": "address"
        }
      ],
      "name": "OwnershipTransferred",
      "type": "event"
    },
    {
      "constant": false,
      "inputs": [
        {
          "name": "_zoombie_id",
          "type": "uint256"
        },
        {
          "name": "_sell_price",
          "type": "uint256"
        }
      ],
      "name": "sell",
      "outputs": [],
      "payable": false,
      "stateMutability": "nonpayable",
      "type": "function"
    },
    {
      "constant": false,
      "inputs": [
        {
          "name": "_zoombie_id",
          "type": "uint256"
        }
      ],
      "name": "buy",
      "outputs": [],
      "payable": true,
      "stateMutability": "payable",
      "type": "function"
    },
    {
      "constant": true,
      "inputs": [],
      "name": "getzombieGoodsArray",
      "outputs": [
        {
          "name": "",
          "type": "uint256[]"
        }
      ],
      "payable": false,
      "stateMutability": "view",
      "type": "function"
    }
  ],
  "bytecode": "0x60806040526010600155600154600a0a60025567016345785d8a0000600755336000806101000a81548173ffffffffffffffffffffffffffffffffffffffff021916908373ffffffffffffffffffffffffffffffffffffffff160217905550611b558061006d6000396000f300608060405260043610610107576000357c0100000000000000000000000000000000000000000000000000000000900463ffffffff1680630496152f1461010c578063095ea7b3146101a45780631abe9b6d146101f15780632998e217146102485780632d7682c9146102895780633dca7430146102e0578063528b7b8f146103495780636352211e146103b657806370a08231146104235780637fce36081461047a5780638da5cb5b146104fc578063a9059cbb14610553578063b2e6ceeb146105a0578063b4be2313146105cd578063d24f45dd146105f8578063d5c1ae5b14610664578063d79875eb14610734578063d96a094a1461076b578063f2fde38b1461078b575b600080fd5b34801561011857600080fd5b5061014d600480360381019080803573ffffffffffffffffffffffffffffffffffffffff1690602001909291905050506107ce565b6040518080602001828103825283818151815260200191508051906020019060200280838360005b83811015610190578082015181840152602081019050610175565b505050509050019250505060405180910390f35b3480156101b057600080fd5b506101ef600480360381019080803573ffffffffffffffffffffffffffffffffffffffff1690602001909291908035906020019092919050505061090e565b005b3480156101fd57600080fd5b50610232600480360381019080803573ffffffffffffffffffffffffffffffffffffffff1690602001909291905050506109d3565b6040518082815260200191505060405180910390f35b34801561025457600080fd5b5061027360048036038101908080359060200190929190505050610a1c565b6040518082815260200191505060405180910390f35b34801561029557600080fd5b506102ca600480360381019080803573ffffffffffffffffffffffffffffffffffffffff169060200190929190505050610a3f565b6040518082815260200191505060405180910390f35b3480156102ec57600080fd5b50610347600480360381019080803590602001908201803590602001908080601f0160208091040260200160405190810160405280939291908181526020018383808284378201915050505050509192919290505050610a57565b005b34801561035557600080fd5b5061037460048036038101908080359060200190929190505050610d78565b604051808273ffffffffffffffffffffffffffffffffffffffff1673ffffffffffffffffffffffffffffffffffffffff16815260200191505060405180910390f35b3480156103c257600080fd5b506103e160048036038101908080359060200190929190505050610dab565b604051808273ffffffffffffffffffffffffffffffffffffffff1673ffffffffffffffffffffffffffffffffffffffff16815260200191505060405180910390f35b34801561042f57600080fd5b50610464600480360381019080803573ffffffffffffffffffffffffffffffffffffffff169060200190929190505050610de8565b6040518082815260200191505060405180910390f35b34801561048657600080fd5b506104a560048036038101908080359060200190929190505050610e31565b604051808581526020018481526020018373ffffffffffffffffffffffffffffffffffffffff1673ffffffffffffffffffffffffffffffffffffffff16815260200182815260200194505050505060405180910390f35b34801561050857600080fd5b50610511610e81565b604051808273ffffffffffffffffffffffffffffffffffffffff1673ffffffffffffffffffffffffffffffffffffffff16815260200191505060405180910390f35b34801561055f57600080fd5b5061059e600480360381019080803573ffffffffffffffffffffffffffffffffffffffff16906020019092919080359060200190929190505050610ea6565b005b3480156105ac57600080fd5b506105cb60048036038101908080359060200190929190505050610fd1565b005b3480156105d957600080fd5b506105e261118b565b6040518082815260200191505060405180910390f35b34801561060457600080fd5b5061060d611191565b6040518080602001828103825283818151815260200191508051906020019060200280838360005b83811015610650578082015181840152602081019050610635565b505050509050019250505060405180910390f35b34801561067057600080fd5b5061068f600480360381019080803590602001909291905050506111e9565b6040518088815260200180602001878152602001868152602001858152602001848152602001838152602001828103825288818151815260200191508051906020019080838360005b838110156106f35780820151818401526020810190506106d8565b50505050905090810190601f1680156107205780820380516001836020036101000a031916815260200191505b509850505050505050505060405180910390f35b34801561074057600080fd5b5061076960048036038101908080359060200190929190803590602001909291905050506112d2565b005b6107896004803603810190808035906020019092919050505061157e565b005b34801561079757600080fd5b506107cc600480360381019080803573ffffffffffffffffffffffffffffffffffffffff16906020019092919050505061175e565b005b6060600060606000806107e0866109d3565b9350836040519080825280602002602001820160405280156108115781602001602082028038833980820191505090505b50925060009150600090505b600580549050811015610902578573ffffffffffffffffffffffffffffffffffffffff166004600060058481548110151561085457fe5b906000526020600020906007020160000154815260200190815260200160002060009054906101000a900473ffffffffffffffffffffffffffffffffffffffff1673ffffffffffffffffffffffffffffffffffffffff1614156108f5576005818154811015156108c057fe5b90600052602060002090600702016000015483838151811015156108e057fe5b90602001906020020181815250506001820191505b808060010191505061081d565b82945050505050919050565b803373ffffffffffffffffffffffffffffffffffffffff166004600083815260200190815260200160002060009054906101000a900473ffffffffffffffffffffffffffffffffffffffff1673ffffffffffffffffffffffffffffffffffffffff1614151561097c57600080fd5b826006600084815260200190815260200160002060006101000a81548173ffffffffffffffffffffffffffffffffffffffff021916908373ffffffffffffffffffffffffffffffffffffffff160217905550505050565b6000600360008373ffffffffffffffffffffffffffffffffffffffff1673ffffffffffffffffffffffffffffffffffffffff168152602001908152602001600020549050919050565b600881815481101515610a2b57fe5b906000526020600020016000915090505481565b60036020528060005260406000206000915090505481565b600080610a626119db565b6002600360003373ffffffffffffffffffffffffffffffffffffffff1673ffffffffffffffffffffffffffffffffffffffff16815260200190815260200160002054101515610b19576040517f08c379a00000000000000000000000000000000000000000000000000000000081526004018080602001828103825260178152602001807f6f6e6c792063616e206d696e742032205a6f6f6d62696500000000000000000081525060200191505060405180910390fd5b610b6c6001600360003373ffffffffffffffffffffffffffffffffffffffff1673ffffffffffffffffffffffffffffffffffffffff168152602001908152602001600020546118b390919063ffffffff16565b600360003373ffffffffffffffffffffffffffffffffffffffff1673ffffffffffffffffffffffffffffffffffffffff16815260200190815260200160002081905550610bb8846118d1565b9250600580549050915060e060405190810160405280838152602001858152602001848152602001600081526020016000815260200142815260200142815250905060058190806001815401808255809150509060018203906000526020600020906007020160009091929091909150600082015181600001556020820151816001019080519060200190610c4e929190611a19565b5060408201518160020155606082015181600301556080820151816004015560a0820151816005015560c08201518160060155505050336004600084815260200190815260200160002060006101000a81548173ffffffffffffffffffffffffffffffffffffffff021916908373ffffffffffffffffffffffffffffffffffffffff1602179055507f5c25cb5398a74b6cf5d98432e382f95b980d97d32b1d4ffff88c39823b3a2411846040518080602001828103825283818151815260200191508051906020019080838360005b83811015610d38578082015181840152602081019050610d1d565b50505050905090810190601f168015610d655780820380516001836020036101000a031916815260200191505b509250505060405180910390a150505050565b60046020528060005260406000206000915054906101000a900473ffffffffffffffffffffffffffffffffffffffff1681565b60006004600083815260200190815260200160002060009054906101000a900473ffffffffffffffffffffffffffffffffffffffff169050919050565b6000600360008373ffffffffffffffffffffffffffffffffffffffff1673ffffffffffffffffffffffffffffffffffffffff168152602001908152602001600020549050919050565b60096020528060005260406000206000915090508060000154908060010154908060020160009054906101000a900473ffffffffffffffffffffffffffffffffffffffff16908060030154905084565b6000809054906101000a900473ffffffffffffffffffffffffffffffffffffffff1681565b60006004600083815260200190815260200160002060009054906101000a900473ffffffffffffffffffffffffffffffffffffffff1690506001600360008573ffffffffffffffffffffffffffffffffffffffff1673ffffffffffffffffffffffffffffffffffffffff168152602001908152602001600020600082825401925050819055506001600360008373ffffffffffffffffffffffffffffffffffffffff1673ffffffffffffffffffffffffffffffffffffffff16815260200190815260200160002060008282540392505081905550826004600084815260200190815260200160002060006101000a81548173ffffffffffffffffffffffffffffffffffffffff021916908373ffffffffffffffffffffffffffffffffffffffff160217905550505050565b60006004600083815260200190815260200160002060009054906101000a900473ffffffffffffffffffffffffffffffffffffffff16905061105c6001600360003373ffffffffffffffffffffffffffffffffffffffff1673ffffffffffffffffffffffffffffffffffffffff168152602001908152602001600020546118b390919063ffffffff16565b600360003373ffffffffffffffffffffffffffffffffffffffff1673ffffffffffffffffffffffffffffffffffffffff168152602001908152602001600020819055506110f26001600360008473ffffffffffffffffffffffffffffffffffffffff1673ffffffffffffffffffffffffffffffffffffffff168152602001908152602001600020546119c290919063ffffffff16565b600360008373ffffffffffffffffffffffffffffffffffffffff1673ffffffffffffffffffffffffffffffffffffffff16815260200190815260200160002081905550336004600084815260200190815260200160002060006101000a81548173ffffffffffffffffffffffffffffffffffffffff021916908373ffffffffffffffffffffffffffffffffffffffff1602179055505050565b60075481565b606060088054806020026020016040519081016040528092919081815260200182805480156111df57602002820191906000526020600020905b8154815260200190600101908083116111cb575b5050505050905090565b6005818154811015156111f857fe5b9060005260206000209060070201600091509050806000015490806001018054600181600116156101000203166002900480601f0160208091040260200160405190810160405280929190818152602001828054600181600116156101000203166002900480156112aa5780601f1061127f576101008083540402835291602001916112aa565b820191906000526020600020905b81548152906001019060200180831161128d57829003601f168201915b5050505050908060020154908060030154908060040154908060050154908060060154905087565b6000806112dd611a99565b843373ffffffffffffffffffffffffffffffffffffffff166004600083815260200190815260200160002060009054906101000a900473ffffffffffffffffffffffffffffffffffffffff1673ffffffffffffffffffffffffffffffffffffffff1614151561134b57600080fd5b60075485101515156113c5576040517f08c379a000000000000000000000000000000000000000000000000000000000815260040180806020018281038252601b8152602001807f6d757374206d6f7265207468616e206c6f77657374207072696365000000000081525060200191505060405180910390fd5b60006009600088815260200190815260200160002060000154141515611453576040517f08c379a000000000000000000000000000000000000000000000000000000000815260040180806020018281038252600f8152602001807f616c7265616479206f6e2073616c65000000000000000000000000000000000081525060200191505060405180910390fd5b6004600087815260200190815260200160002060009054906101000a900473ffffffffffffffffffffffffffffffffffffffff169350600886908060018154018082558091505090600182039060005260206000200160009091929091909150555060016008805490500392506080604051908101604052808781526020018681526020018573ffffffffffffffffffffffffffffffffffffffff1681526020018481525091508160096000888152602001908152602001600020600082015181600001556020820151816001015560408201518160020160006101000a81548173ffffffffffffffffffffffffffffffffffffffff021916908373ffffffffffffffffffffffffffffffffffffffff16021790555060608201518160030155905050505050505050565b60008060096000848152602001908152602001600020915081600101543410151515611612576040517f08c379a00000000000000000000000000000000000000000000000000000000081526004018080602001828103825260198152602001807f6d757374206d6f7265207468616e2073656c6c2070726963650000000000000081525060200191505060405180910390fd5b8160020160009054906101000a900473ffffffffffffffffffffffffffffffffffffffff1673ffffffffffffffffffffffffffffffffffffffff166108fc349081150290604051600060405180830381858888f1935050505015801561167c573d6000803e3d6000fd5b506116873384610ea6565b60096000848152602001908152602001600020600301549050600160088054905011156116ee5760086001600880549050038154811015156116c557fe5b90600052602060002001546008828154811015156116df57fe5b90600052602060002001819055505b60088054809190600190036117039190611ad8565b506009600084815260200190815260200160002060008082016000905560018201600090556002820160006101000a81549073ffffffffffffffffffffffffffffffffffffffff021916905560038201600090555050505050565b6000809054906101000a900473ffffffffffffffffffffffffffffffffffffffff1673ffffffffffffffffffffffffffffffffffffffff163373ffffffffffffffffffffffffffffffffffffffff161415156117b957600080fd5b600073ffffffffffffffffffffffffffffffffffffffff168173ffffffffffffffffffffffffffffffffffffffff16141515156117f557600080fd5b8073ffffffffffffffffffffffffffffffffffffffff166000809054906101000a900473ffffffffffffffffffffffffffffffffffffffff1673ffffffffffffffffffffffffffffffffffffffff167f8be0079c531659141344cd1fd0a4f28419497f9722a3daafe3b4186f6b6457e060405160405180910390a3806000806101000a81548173ffffffffffffffffffffffffffffffffffffffff021916908373ffffffffffffffffffffffffffffffffffffffff16021790555050565b60008082840190508381101515156118c757fe5b8091505092915050565b600060025482426040516020018083805190602001908083835b60208310151561191057805182526020820191506020810190506020830392506118eb565b6001836020036101000a038019825116818451168082178552505050505050905001828152602001925050506040516020818303038152906040526040518082805190602001908083835b602083101515611980578051825260208201915060208101905060208303925061195b565b6001836020036101000a0380198251168184511680821785525050505050509050019150506040518091039020600190048115156119ba57fe5b069050919050565b60008282111515156119d057fe5b818303905092915050565b60e060405190810160405280600081526020016060815260200160008152602001600081526020016000815260200160008152602001600081525090565b828054600181600116156101000203166002900490600052602060002090601f016020900481019282601f10611a5a57805160ff1916838001178555611a88565b82800160010185558215611a88579182015b82811115611a87578251825591602001919060010190611a6c565b5b509050611a959190611b04565b5090565b6080604051908101604052806000815260200160008152602001600073ffffffffffffffffffffffffffffffffffffffff168152602001600081525090565b815481835581811115611aff57818360005260206000209182019101611afe9190611b04565b5b505050565b611b2691905b80821115611b22576000816000905550600101611b0a565b5090565b905600a165627a7a7230582064680d70ab1416ebcf38ec44e5868c94bf2c8782d4de944af0019f9e6b8a3bda0029",
  "source": "pragma solidity ^0.4.22;\n\nimport './safemath.sol';\nimport \"./ZombieOwnership.sol\";\n\ncontract ZombieMarket is ZombieOwnership{\n    \n    using SafeMath for uint;\n    \n    // 最低价\n    uint public lowest_price = 0.1 ether;\n    \n    // 僵尸商品\n    struct zombieGoods{\n        uint zoombie_id;\n        uint sell_price;\n        address seller;\n        uint index;\n    }\n    \n    uint[] public zombieGoodsArray;\n    // zoombie_id => bool\n    mapping (uint => zombieGoods) public zombieGoodsDict;\n    // zoombie_id => zombieGoodsArray index\n    \n    function sell(uint _zoombie_id, uint _sell_price) external zoombieOwnerOf(_zoombie_id) {\n        require(_sell_price >= lowest_price, \"must more than lowest price\"); // 卖价高于最低价\n        require(zombieGoodsDict[_zoombie_id].zoombie_id == 0, \"already on sale\"); \n        address owner = zombieToOwner[_zoombie_id];\n        zombieGoodsArray.push(_zoombie_id);\n        uint index = zombieGoodsArray.length-1;\n        \n        zombieGoods memory goods = zombieGoods(_zoombie_id, _sell_price, owner, index);\n        zombieGoodsDict[_zoombie_id] = goods;\n    }\n    \n    function buy(uint _zoombie_id) external payable {\n        zombieGoods zombie_good = zombieGoodsDict[_zoombie_id];\n        require(msg.value >= zombie_good.sell_price, \"must more than sell price\"); \n        zombie_good.seller.transfer(msg.value); // \n        transfer(msg.sender, _zoombie_id);\n        \n        uint index = zombieGoodsDict[_zoombie_id].index;\n        if (zombieGoodsArray.length > 1) {\n             zombieGoodsArray[index] = zombieGoodsArray[zombieGoodsArray.length-1];\n            }\n        zombieGoodsArray.length--;\n        \n        delete zombieGoodsDict[_zoombie_id];\n        \n    }\n    \n    \n    function getzombieGoodsArray() external view returns (uint[]) {\n        return zombieGoodsArray;\n    }\n    \n}",
  "sourcePath": "/Users/chanjerry/Documents/GitHub/blockchain/crypto_zoombie/bare-box/contracts/ZombieMarket.sol",
  "compiler": {
    "name": "solc",
    "version": "0.4.24+commit.e67f0147.Emscripten.clang"
  },
  "schemaVersion": "2.0.1",
  "updatedAt": "2021-11-28T13:49:12.824Z"
}